:020000040000FA
:040800008EEF04F083
:080808000000000000000000E8
:100810000000000000000000046ED8CF05F0E0CF1B
:1008200006F00001E9CF0CF0EACF07F0E1CF08F0C5
:10083000E2CF09F0D9CF0AF0DACF0BF0F3CF12F004
:10084000F4CF13F0FACF14F000C00EF001C00FF097
:1008500002C010F003C011F0F2A632EF04F0F2B0C3
:1008600069EF04F00EC000F00FC001F010C002F0FC
:1008700011C003F00CC0E9FF07C0EAFF078E08C0F3
:10088000E1FF09C0E2FF0AC0D9FF0BC0DAFF12C0C6
:10089000F3FF13C0F4FF14C0FAFF045006C0E0FFDA
:1008A00005C0D8FF1000EA6A170EE96EEF5010E09D
:1008B0000F0E016EBF0E006E0400002EFDD7012E3C
:1008C000F9D78F0E006E002EFED70400EF2EF0D762
:1008D0001200938081A015D00C0E166EFA0E176EC2
:1008E000E2DF162EFBD7938081A00BD095908C80F1
:1008F0000C0E166EFA0E176ED6DF162EFBD79590DD
:100900008C90F29032EF04F0FF0E936E000E956E15
:10091000C00EF212F286836A99EF04F0F86AF19041
:10092000D08E078EC150C00B0F09C16E070EB46E7A
:06093000EBD7FFD7030026
:020000040030CA
:0E000000240E3F1E008081000FC00FA00F4095
:00000001FF
;PIC18F4550
;CRC=5507  CREATED="05-Απρ-23 02:23"
