:020000040000FA
:0408000096EF04F07B
:080808000000000000000000E8
:100810000000000000000000046ED8CF05F0E0CF1B
:1008200006F00001E9CF0CF0EACF07F0E1CF08F0C5
:10083000E2CF09F0D9CF0AF0DACF0BF0F3CF12F004
:10084000F4CF13F0FACF14F000C00EF001C00FF097
:1008500002C010F003C011F0F2AA32EF04F0F2B4BB
:1008600053EF04F00EC000F00FC001F010C002F012
:1008700011C003F00CC0E9FF07C0EAFF078E08C0F3
:10088000E1FF09C0E2FF0AC0D9FF0BC0DAFF12C0C6
:10089000F3FF13C0F4FF14C0FAFF045006C0E0FFDA
:1008A00005C0D8FF1000FB0ED76E500ED66E010E9D
:1008B0001626D8B0172AD8B4182AD8B4192AF29410
:1008C00032EF04F0880ED56EFB0ED76E500ED66E4A
:1008D000F28AC00EF212000E936E816AAEEF04F03F
:1008E00019C01DF018C01CF017C01BF016C01AF07C
:1008F00022501A24006E000E1B20016E000E1C20D8
:10090000026E000E1D20036E1950035C0DE30BE117
:100910001850025C09E307E11750015C05E303E1AD
:100920000050165CD8A0E4D7B3EF04F0F86AF19455
:10093000D08E078E196A186A176A166A1D6A1C6AB1
:100940001B6A1A6A216A206A1F6A010E1E6EC15054
:10095000C00B0F09C16E070EB46EB4D7FF0E811A1B
:0A096000F40E226EBDD7FAD7030093
:020000040030CA
:0E000000240E3F1E008081000FC00FA00F4095
:00000001FF
;PIC18F4550
;CRC=5FE1  CREATED="24-Ìבת-23 14:49"
