:020000040000FA
:0408000083EF04F08E
:080808000000000000000000E8
:100810000000000000000000046ED8CF05F0E0CF1B
:1008200006F00001E9CF0CF0EACF07F0E1CF08F0C5
:10083000E2CF09F0D9CF0AF0DACF0BF0F3CF12F004
:10084000F4CF13F0FACF14F000C00EF001C00FF097
:1008500002C010F003C011F0F2AA32EF04F0F2B4BB
:1008600053EF04F00EC000F00FC001F010C002F012
:1008700011C003F00CC0E9FF07C0EAFF078E08C0F3
:10088000E1FF09C0E2FF0AC0D9FF0BC0DAFF12C0C6
:10089000F3FF13C0F4FF14C0FAFF045006C0E0FFDA
:1008A00005C0D8FF1000B60ED76EC20ED66E160663
:1008B000170618061906165204E1020E166E010EEE
:1008C000811A175204E1030E176E020E811A185294
:1008D00003E1040E186E811A195204E1060E196E16
:1008E000080E811AF29432EF04F0840ED56EB60E23
:1008F000D76EC20ED66EF28AC00EF212000E936E42
:10090000816A96EF04F0F86AF194D08E078E020E99
:10091000166E030E176E040E186E060E196EC15079
:10092000C00B0F09C16E070EB46EDFD7FFD70300EF
:020000040030CA
:0E000000240E3F1E008081000FC00FA00F4095
:00000001FF
;PIC18F4550
;CRC=0637  CREATED="24-Ìבת-23 15:23"
