:020000040000FA
:0408000031EF06F0DE
:080808000000000000000000E8
:100810000000000000000000046ED8CF05F0E0CF1B
:1008200006F00001E9CF0CF0EACF07F0E1CF08F0C5
:10083000E2CF09F0D9CF0AF0DACF0BF0F3CF12F004
:10084000F4CF13F0FACF14F000C00EF001C00FF097
:1008500002C010F003C011F0F2AA32EF04F0F2B4BB
:100860006EEF05F00EC000F00FC001F010C002F0F6
:1008700011C003F00CC0E9FF07C0EAFF078E08C0F3
:10088000E1FF09C0E2FF0AC0D9FF0BC0DAFF12C0C6
:10089000F3FF13C0F4FF14C0FAFF045006C0E0FFDA
:1008A00005C0D8FF1000F2CF0DF0F29CF29EF76A5F
:1008B000C60FF66E080EF7220900F5500DBCF28C3B
:1008C0000DBEF28E1200280C01060C0032B002D0D0
:1008D0008C9801D08C88959832B202D08C9A01D035
:1008E0008C8A959A32B402D08C9C01D08C8C959CC9
:1008F00032B602D08C9E01D08C8E959E060E006E74
:10090000002EFED7000095968C860400C70E006E60
:10091000002EFED7000095968C96120095948C942C
:100920002F5203E095948C8402D095948C94020EFF
:10093000006E002EFED700D0000095968C963038C1
:10094000316E0F0E311631C032F0C0DF30500F0B58
:10095000316E326EBBDF12002C2C01D003D0400E62
:100960002D6E01D02D6A010E2B5C2D262D50800995
:100970002E6E2F6A306ED2DF1200EA6A2B0EE96EFD
:10098000EF5010E00F0E016EBF0E006E0400002E3F
:10099000FDD7012EF9D78F0E006E002EFED7040072
:1009A000EF2EF0D712002A500C0A05E0060A0BE0E1
:1009B000020A0FE013D02F6A010E306EAFDF040E73
:1009C0002B6EDBDF10D0010E2B6E020E2C6EC4DFFF
:1009D0000AD02F6A100E306EA1DF05D0010E2F6EE7
:1009E0002AC030F09BDF12000900F6CF25F0F7CFC8
:1009F00026F0F5CF2AF0D7DF25C0F6FF26C0F7FF97
:100A0000242EF2D784EF05F02B50016A2A5C03E212
:100A10002AC000F00CD0006A080E2C6E2A36003670
:100A20002B50005CD8B0006E01362C2EF7D7120088
:100A3000200E25A8300E266E24C000F024AE08D06B
:100A4000001E002A00C024F02D0E266E258E258063
:100A5000015024C02AF0640E2B6ED6DF00C024F0B3
:100A6000300E0124276E24C02AF00A0E2B6ECCDF34
:100A7000300E0024296E300E0124286E26C000F0AE
:100A8000300E275C04E0258225BE258412D026C0C6
:100A900027F0200E266E300E285C04E0258025BE4F
:100AA000258207D0D8A4258004E127C028F0200E95
:100AB000276E25B405D025B206D025B007D009D0C1
:100AC00026C02AF070DF27C02AF06DDF28C02AF088
:100AD0006ADF29C02AF067DF89EF05F0DB0ED76EE9
:100AE000610ED66E1706175214E1140E176E182AEF
:100AF000050E2B6E010E2C6E2FDF180EF66E0B0EF0
:100B0000F76E080E246E70D718C024F0180E256EEC
:100B10008FD7F29432EF04F05345434F4E44533D88
:100B200025640000000E936E956E186A140E176E01
:100B3000850ED56EDB0ED76E610ED66EF28AC00EB4
:100B4000F2123FEF06F095948C9495968C96166A67
:100B5000F2BC168CF29CF2BE168EF29EC80E2B6E64
:100B60000CDF16BCF28C16BEF28E196A1950020800
:100B70001EE3166AF2BC168CF29CF2BE168EF29E32
:100B8000030E326EA3DE16BCF28C16BEF28E166A0F
:100B9000F2BC168CF29CF2BE168EF29E0A0E2B6EE2
:100BA000ECDE16BCF28C16BEF28E192ADFD7166A5E
:100BB000F2BC168CF29CF2BE168EF29E020E326EC3
:100BC00085DE16BCF28C16BEF28E196A1950030827
:100BD0002AE3036A1950F2CF1AF0F29CF29E63DE08
:100BE0001ABCF28C1ABEF28E1A6E166AF2BC168C01
:100BF000F29CF2BE168EF29E2F6A306E8FDE16BC0D
:100C0000F28C16BEF28E166AF2BC168CF29CF2BE04
:100C1000168EF29E0A0E2B6EB0DE16BCF28C16BE3D
:100C2000F28E192AD3D740EF06F00900F55217E0EB
:100C3000F6CF19F0F7CF1AF0166AF2BC168CF29CB8
:100C4000F2BE168EF29EF5CF2AF0ADDE16BCF28C07
:100C500016BEF28E19C0F6FF1AC0F7FFE6D745EFB1
:100C600006F0F86AF194D08E078E140E176E186A8B
:100C7000C150C00B0F09C16E070EB46E53D763D7B6
:0E0C8000CA0EF66E080EF76ED0D7FFD703002F
:020000040030CA
:0E000000240E3F1E008081000FC00FA00F4095
:00000001FF
;PIC18F4550
;CRC=BE44  CREATED="15-Ìבת-23 12:15"
