:1000000018EF00F0EA6A060EE96EEF5010E00F0EEE
:10001000016EBF0E006E0400002EFDD7012EF9D731
:100020008F0E006E002EFED70400EF2EF0D71200C8
:10003000F86AD08EC150C00B0F09C16E070EB46EA6
:10004000000E936E8168FA0E066EDCDF816AFA0E8E
:10005000066ED8DF040E816E280E056EFA0E066E4F
:10006000D1DF052EFBD7020E816E080E056EFA0E4B
:10007000066EC8DF052EFBD7010E816E280E056EB9
:0E008000FA0E066EBFDF052EFBD7DDD7FFD7C9
:020000040030CA
:0E000000240E391E008020000FC00FE00F40BC
:00000001FF
;PIC18F4550
;CRC=AAF7  CREATED="01-Ìבס-23 12:36"
